:02000002D0002C
:1040000000400D0044910D00000006000C00050169
:084010000401BD0B00000000DB
:04401800B0800D0067
:10401C0009480A49884208B505D0094A824202D0AB
:10402C00121A03F0B9FF0748074A0021121A03F0CD
:10403C00DBFF014808BD00BF04E50320B4900D0070
:10404C006CE503206CE50320F0E7032070B5074E08
:10405C00074C03F0B9FAA41BA4080025A54200D113
:10406C0070BD56F8043B98470135F7E780900D007A
:10407C00A4900D0000F056B808B500F0B1F8BDE8FA
:10408C00084003F063BA01F027BE01F025BE01F031
:10409C002BBE000008B5034A00210C2001F078FD6E
:1040AC00FEE700BF95570D000078B0FA80F040098C
:1040BC0070470123037070472DE9F041134F144DE5
:1040CC0004464618B4421ED003F084FB03682178E2
:1040DC009B6898472378312BA04606D13946284651
:1040EC0003F05EF9284601F07DFA98F80030302B89
:1040FC0004F10104E6D1284601F008F802F0A2FB15
:10410C0002F030FDDEE7BDE8F08100BFC4800D0099
:10411C00B8E5032010B50446006808B101F0E4FDD1
:10412C00204610BD10B52A4896B000F0E3FD284893
:10413C0000F0ECFF264801F055FA02F083FB02F088
:10414C00CFFB02F07FFB234A01460DA802F0E4FFEF
:10415C000DA802F04CFC02F075FB1F4A01460DA89D
:10416C0002F0DAFF0DA802F042FC0DA802F0FBF9F8
:10417C001A4903A802F0FAF803A908A802F0F6F805
:10418C0008A802F039F9044608A8CCB902F053F992
:10419C000094ADF80A0002230DF10A0203210DA8C8
:1041AC0002F0D6F902F04EFB00220DA902F0B8FB8A
:1041BC0003F010FB4FF4165103F000FB16B010BDCA
:1041CC0002F03EF900230093024610230721E6E794
:1041DC00B8E5032030E6032028E603207CE5032025
:1041EC0030B5314C8BB0204600F0ADFD204600F0D0
:1041FC008DFF0121204600F02EFD00254FF001130C
:10420C00C4E9045302F01EFB02F09DFB02F01AFB02
:10421C0002F099FB044600283DD0244901A801F086
:10422C00E0FE039A2B46013205A901A801F0FFFE1E
:10423C00039A1F482B46013205A902F0FBF9012015
:10424C0003F031F92846FF22294603F03CF901A876
:10425C0001F07CFE4FF47A7003F01CF900230A2263
:10426C0001A9134802F0E6F9124905A801F0B9FEBC
:10427C00079A01A905A80023013201F0D8FE079A7C
:10428C000B480023013201A902F0D4F905A801F072
:10429C005DFE0BB030BD012003F005F922465F2115
:1042AC00FF2003F010F9D5E7B8E50320D5800D0009
:1042BC0030E60320DD800D00F0B5164691B00022EB
:1042CC00C0E9002204460D460BAF194606A802F0C1
:1042DC004DF81699384602F049F833788DF81430B9
:1042EC00189B0293179B2046CDE9007305AA06ABD9
:1042FC00294602F0EFFD204611B0F0BD2DE9F04348
:10430C00354D364B364EAB60002491B02C60AC80F2
:10431C00AC71032001F04CFC32463249DFF8F880D6
:10432C00314FDFF8F8902846304D03F0FBFC214666
:10433C00012001F04DFC0721284600F0ADFC284679
:10434C002B4D2C49324603F0EDFC2B49284602F04C
:10435C00F3F82A49404602F0EFF82949384602F0B2
:10436C00EBF81023394606A88DF8143001F0FEFF47
:10437C0029460BA801F0FAFF224F23490BAB0093FF
:10438C0005AA06ABCDE901444846FFF795FF324636
:10439C003946484603F0C6FC0423414606A88DF86E
:1043AC00143001F0E3FF29460BA801F0DFFF174D95
:1043BC00174B01930BAB009305AA06AB154902945E
:1043CC002846FFF779FF32463946284603F0AAFC07
:1043DC0011B0BDE8F08300BF70E503200000FFFFC3
:1043EC006CE5032021410D00A4E50320B8E5032072
:1043FC007CE50320714C0D00E4800D0009810D005B
:10440C002E810D00FB690D0053810D0028E6032061
:10441C00C5400D0056810D0090E5032030E60320C9
:10442C00704710B51021044603F081FC204610BDE6
:10443C000EB403B503AB002153F8042B019302F027
:10444C00E0FF02B05DF804EB03B0704773B50446AF
:10445C0008462279A36832B1A3B90B4902B0BDE872
:10446C00704002F09DBF094A267B094D0949647BC7
:10447C00012E18BF2946CDE900140749FFF7D8FFD4
:10448C0002B070BD054AEFE76A810D00DC800D00BB
:10449C0066810D0062810D0080810D0059810D0037
:1044AC002DE9F04F85B01F46BDF93880BDF83C3082
:1044BC00A8EB0209A7EB010AB9F1000FB8BFC9F1CB
:1044CC000009BAF1000FB8BFCAF1000AD145834602
:1044DC000C46154604DD3A462C4647460D4690469A
:1044EC00BC4205DD2A464546904622463C461746C8
:1044FC003E1BB2B20092A8EB0502002AB8BF524292
:10450C000192C6F3C03202FA86F64545B4BF0122C9
:10451C004FF0FF3276100292BC421CDCDBF800201C
:10452C000393D145D2F81880C7BF294622462A46A4
:10453C0021465846C047019A039BB61AB1B236B20F
:10454C00002E05DA029A1544009A56182DB236B28E
:10455C00013424B2E0E705B0BDE8F08F704710B429
:10456C0004682469A4465DF8044B604730B40468C1
:10457C00BDF808500295A46BA44630BC604730B41B
:10458C000468BDF808500295E46BA44630BC604743
:10459C0070B4BDF90C50BDF810600468CDE9035639
:1045AC00246CA44670BC60472DE9F3411C4603689B
:1045BC00BDF820805B6905461646013C34440F4625
:1045CC0024B298472B68CDF8048000949C6A284646
:1045DC003B4632463946A0472B68DB6A284602B078
:1045EC00BDE8F04118472DE9F3411D460368BDF8BD
:1045FC0020805B69044617460E469847CDE9007843
:10460C0022686B1E3344956A20461BB23A463146EB
:10461C00A8472368DB6A204602B0BDE8F041184782
:10462C002DE9F3471E460368BDF928905B69BDF878
:10463C002C800C460546174698472644B4422B68F6
:10464C000BDACDF80080D3F820A021464B463A4631
:10465C0028460134D04724B2F0E7DB6A284602B082
:10466C00BDE8F047184713B502680191B0F90E1078
:10467C000091146CB0F90C3000221146A04702B026
:10468C0010BD2DE9F3471D460368BDF82C805B690E
:10469C00BDF9289004460F46164698472368CDF876
:1046AC000080D3F824A032462B4639462046D0470A
:1046BC002368CDF8008009F1FF323244D3F824A0EE
:1046CC0039462B46204612B2D0472368CDF80080DD
:1046DC00D3F820A032464B4639462046D0476B1EB5
:1046EC00D9192368CDF800801D6A20464B46324606
:1046FC0009B2A8472368DB6A204602B0BDE8F04740
:10470C00184770472DE9F74399421646BDF92870B2
:10471C00BDF82C90026880460D461C4613D1BE4253
:10472C00C8BF3346CDF82890C4BF3E461F467B1CFD
:10473C00946B9B1B1BB2324629464046A44603B0E1
:10474C00BDE8F0436047BE420AD19942C2BF0B4656
:10475C0025461C46631CCDF82890D46B5B1BE9E7FF
:10476C0053699847CDE90079D8F8003040469F6AE4
:10477C00324623462946B847D8F80030DB6A404613
:10478C0003B0BDE8F043184701F00303B0F90A2069
:10479C008376C907B0F9083059BF8381C281828101
:1047AC00C381704730B54281C281074A074D0181F0
:1047BC00002481814FF0FF31C0E90512446005608F
:1047CC0004610477046230BD01010001A8860D006C
:1047DC002DE9F04F89B0CDE902120268BDF948808D
:1047EC000493BDF94C3052690593BDF850A00446B2
:1047FC00904718F107024FF0000648BF08F10E026F
:10480C004FEAE20B01963546039B019ABDF9041061
:10481C009A18059B8B4212B227DD049B33444FF050
:10482C00000906930FFA89F080451FFA89F117DD0C
:10483C004F0705BF069BC0106D001D5C18BFEDB285
:10484C002B060AD5029B206807921944836909B28A
:10485C001F4620465346B847079A09F10109E1E77C
:10486C00019B013301935E44CEE72368DB6A20464B
:10487C0009B0BDE8F04F18472DE9F04F2DED028B34
:10488C0091B01646026ABDF874809DF878509DF878
:10489C007C4003911F46BDF8703004938346002A78
:1048AC0040F0C580B0F90C308B4240F34C81B0F92C
:1048BC000E30B34240F34781062313FB0513002B44
:1048CC0040F3418106EBC403002B40F33C81037F92
:1048DC001BB9AF2F84BF0137FFB2DBF8003058464D
:1048EC005B6998470522099200220592984A07EBCA
:1048FC008703D3180C93B3B20693059A0C9B9B5C5D
:10490C000793ABB20B93BDF80C300893039B02FBDF
:10491C0005F919FA83F90FFA89F308EE103A08230E
:10492C000A93039B02EB030A4FF000090FFA8AFA71
:10493C00079ADBF80030D20752D5012D1FFA89F205
:10494C003ED1012C3CD19B6906991F46049B0A441D
:10495C0012B251465846B84709F101034FFA83F990
:10496C00079B5B0807930A9B013B13F0FF030A9319
:10497C00DED1059F01377BB20593099B013B13F0F8
:10498C00FF030993B9D1049B43450FD0012DDBF8EC
:10499C0000303BD1012C39D10899CDF8008005317C
:1049AC001C6A3246082309B25846A047DBF800308F
:1049BC00DB6A584611B0BDEC028BBDE8F04F1847CE
:1049CC00069914FB02F20A44049901910094DB69E4
:1049DC0018EE101A1F4612B22B465846B847BBE7C2
:1049EC00049A4245B8D0012D1FFA89F207D1012C47
:1049FC0005D19B6906991F460A444346A8E70699C8
:104A0C00CDF8048014FB02F20A44DFE70B9ACDF8D0
:104A1C00048002EB8201089AE4000A4411460094D7
:104A2C00DC6932462B4609B25846A047BEE7137ADA
:104A3C00516812680D92FF1AFFB201EBC70331F8EF
:104A4C00372006929A780992DA780B92012D93F915
:104A5C00052093F906A00A9201D8012C57D9BDF96B
:104A6C00283008930FFA8AF30793DBF80030584686
:104A7C005B699847B3B24FF000080E931AFA86F3AD
:104A8C00C14647460F930B9B9F428FD2079B0E9AB2
:104A9C003B4403FB0423002205920F9A1BB202EB4A
:104AAC00070A08EE103A0FFA8AFA4346099A059952
:104ABC00914241D25A1CD2B25B070C9207D1069B91
:104ACC0006990D9A01339BB212F80190069319F0D6
:104ADC00800F12D0012DDBF80030BDF80C101AD16C
:104AEC00012C18D10A9A9B691144059A11441E464F
:104AFC005246049B09B25846B047059E0136F3B2A4
:104B0C004FEA490905935FFA89F90C9BCEE700231C
:104B1C00CDE90733A9E70598089A024402FB051171
:104B2C00049ACDE90042DB6918EE102A1E4609B240
:104B3C002B465846B047E0E7099B013798445FFA8B
:104B4C0088F8FFB29FE711B0BDEC028BBDE8F08F87
:104B5C009D810D00F0B5026A85B004460B46002A13
:104B6C0034D10A2908D1438A0282427E03EBC20364
:104B7C006382012005B0F0BD0D29FAD0E17E007EE4
:104B8C00657E71B1B4F91060062111FB0061B4F9B6
:104B9C000C60B142C1BFB4F91210228201EBC50204
:104BAC006282E28A0192A28A0092CDE90205B4F9EE
:104BBC001220B4F910102046FFF75EFE237E228AE5
:104BCC0003EB430302EB43032382D2E70A2907D109
:104BDC0000230382937A417E428A01FB0323C7E7B9
:104BEC000D29C6D0157AA942C3D3517A9942C0D3A4
:104BFC0051685D1BEDB201EBC505AF782FB3E978B9
:104C0C0019B3E17E007E667E91B195F905103944A9
:104C1C00B4F9107000FB0171B4F90C70B94207DDE6
:104C2C0000272782B4F91210927A02FB06126282D4
:104C3C00E28A0192A28A0092CDE90206B4F912200E
:104C4C00B4F910102046FFF717FE2979237E228A2B
:104C5C0001FB0323B8E7012938BF01210176417616
:104C6C007047000010B5064B03600446006D08B198
:104C7C0000F026FE204600F0D1F8204610BD00BF03
:104C8C0000870D0010B50446FFF7ECFF204670219D
:104C9C0003F04DF8204610BD30B585B004460D46E6
:104CAC0003F018F8104A1149CDE901214FF0FF32F9
:104CBC008021034600922046202200F035F90C4B4F
:104CCC0023600023C4E9143504F1580000F054F8B3
:104CDC0004F1600000F050F804F1680000F04CF8AA
:104CEC00204605B030BD00BF801A0600A08601002A
:104CFC0000870D0013B50446503000F0D9FD636DEC
:104D0C00D90705D50222042104F1580000F048F817
:104D1C00636D9A0705D50022032104F1600000F0B1
:104D2C003FF8636D5B0705D50222114604F168005C
:104D3C0000F036F8012300933C220221204600F0BB
:104D4C00F3F902B010BD10B5436DD907044602D576
:104D5C00583000F032F8636D9A0703D504F1600007
:104D6C0000F02BF8636D5B0705D504F16800BDE816
:104D7C00104000F022B810BD00210A22C0E9001238
:104D8C007047002310B50446C171837188B202F0DC
:104D9C0075FF08B10323A37100F0FEFC206010BD69
:104DAC0038B50C4605461146A0B202F03DFF21462F
:104DBC002846BDE83840FFF7E4BF38B50446C07953
:104DCC0002F05CFFA579003825F0080318BF01201C
:104DDC00C5F340058542A3710AD000F0DDFCA37930
:104DEC00206083F00203A371A079C0F3C00038BD2A
:104DFC0000F0D2FC2368C01AA3889842F4D3A3799C
:104E0C0003F00103AB42EFD000F0C6FCA3792060A5
:104E1C0083F0010343F00803E5E7000010B5044BF1
:104E2C0003600446C06A08B100F05EFF204610BD66
:104E3C000C8C0D0010B50446FFF7F0FF20465021F6
:104E4C0002F075FF204610BD002910B54BDBB0F900
:104E5C000C408C4247DD002A45DBB0F90E409442F1
:104E6C0041DD847E022C1FD0032C26D0012C04D1D2
:104E7C000489D24314440A4621B2012B23D0022BBD
:104E8C0032D083BB002A13460489C06AB8BFD31D35
:104E9C00DB1013FB041102F0070201239340425C68
:104EAC0022EA030242541EE00489C9432144448986
:104EBC00D243224409B212B2DFE74489C9430C44FD
:104ECC00114622B2D9E7002A04891346B8BFD31D74
:104EDC00DB1013FB0411C36A02F0070001228240AD
:104EEC00585C02435A5410BD002A13460489C06A08
:104EFC00B8BFD31DDB1013FB041102F00702012312
:104F0C0003FA02F2435C5A40CCE710B5044690F920
:104F1C003600012180B202F098FE606A18B1BDE83B
:104F2C00104000F068BF10BD70B504461D46002649
:104F3C00FFF738FC114B2360666215B902F0CAFE0C
:104F4C000546FF2384F8333084F836309DF9103051
:104F5C0084F837300A4BA363012384F83C30059B5B
:104F6C00A3644FF6FF72069BA286C4E90A56266418
:104F7C00A4F84460E364204670BD00BF0C8C0D00A7
:104F8C0058870D00F8B50446806A0D4690B194F927
:104F9C00301002F013FDA06A036800219B6898474B
:104FAC00A06A036829469B689847A06ABDE8F84048
:104FBC0002F00BBD94F93530014698B202F045FE73
:104FCC00606A20B12946BDE8F84000F09BBF082676
:104FDC00802794F9330005EA070180B202F035FE10
:104FEC0094F93400012180B202F02FFE94F93400C0
:104FFC00002180B202F029FE013E4FEA5707E8D1AA
:10500C00F8BD38B50446806A0D4680B1A16C02F03B
:10501C00C7FC002D204614BFA721A621FFF7B2FF25
:10502C00A06A88B1E16CBDE8384002F0B9BC606A96
:10503C0018B104F1380100F0F7FE94F936000021A4
:10504C0080B202F002FEE4E72046BDE83840FFF7EC
:10505C005CBF2DE9F8430446806A0D468F1840B3B7
:10506C0094F9301002F0AAFCA06A036800219B6836
:10507C0098470126BD42A06A17D01F2E0CD902F00A
:10508C00A4FC94F93010A06A02F098FCA06A0368A2
:10509C0000219B6898470126A06A15F8011B03683C
:1050AC0001369B689847F6B2E4E7BDE8F84302F096
:1050BC008CBC94F93530014698B202F0C6FDAF4273
:1050CC0022D0606A15F8019B18B1494600F01AFF0E
:1050DC00F5E708264FF0800894F9330009EA080137
:1050EC0080B202F0B2FD94F93400012180B202F0DA
:1050FC00ACFD94F93400002180B202F0A6FD013E13
:10510C004FEA5808E8D1DAE7BDE8F883B0F90A307D
:10511C00DA1D48BF03F10E02B0F90830C06AD21094
:10512C005A43002102F060BF2DE9FF411E46C36ABD
:10513C009DF8288004460F461546B3B12046FFF76C
:10514C00E5FFB4F90A00B4F9081020281FDC20236D
:10515C000122CDE90132203873237339009300EB1F
:10516C00D070894B01EBD1711FE0B0F90A30D81D1A
:10517C0048BF03F10E00B4F90830C010584300F0DA
:10518C00ABFDE0620028D9D104B0BDE8F08140232A
:10519C004FF0010CCDE9013C5223403852390093B9
:1051AC007A4B00EBD07001EBD17140F34F0241F31D
:1051BC004F012046FFF70CFBA06A84F831700028E1
:1051CC0078D0002D74D1B4F90A30202B0CBF3C25BB
:1051DC003D2584F83050B8F1000F01D002F0E4FB0B
:1051EC00FEB194F9370000281BDB012180B202F0DC
:1051FC001BFD94F93700012180B202F026FD01203D
:10520C0002F048F994F93700002180B202F01DFD3C
:10521C000A2002F03FF994F93700012180B202F024
:10522C0014FDA06A002874D0A16C02F0B9FB042212
:10523C0057492046FFF70DFFA17A0139C9B2204624
:10524C00FFF7A0FE534904222046FFF702FF94F912
:10525C003130012B0CBF102114212046FFF792FE98
:10526C0004224D492046FFF7F4FEA3684B4A9342B3
:10527C005CD14B4904222046FFF7EBFED921204696
:10528C00FFF780FE94F93130012B0CBF2221F12164
:10529C002046FFF777FE204642490622FFF7D9FE4B
:1052AC00A06A002863D0E16C02F07AFB01206BE766
:1052BC006DB28EE794F93500012180B202F0B4FC96
:1052CC0094F93600012180B202F0AEFC94F936005C
:1052DC00012180B202F0B9FC656A3DB1B8F1000F52
:1052EC003FF47EAF284600F075FD79E794F9330062
:1052FC00012180B202F098FC94F93400012180B2B3
:10530C0002F092FC94F93400294680B202F09DFC24
:10531C0066E7606A18B104F1380100F085FD94F974
:10532C003600002180B202F090FC80E71E4A9342C6
:10533C000ED11E4903222046FFF78BFE94F9313023
:10534C00012B0CBF9F21CF212046FFF71BFE95E7B9
:10535C00174A934292D1174903222046FFF779FE50
:10536C0094F93130012B0CBF1021AF21ECE794F9EB
:10537C003600012180B202F068FC606A002895D0EA
:10538C0000F039FD92E700BF248A0D0064870D0000
:10539C006C8C0D00708C0D00748C0D008000200046
:1053AC007E8C0D00788C0D0080004000828C0D00EE
:1053BC0060001000858C0D0070B5002ABDF81050EF
:1053CC003DDBB0F90A40944239DD0029BEBF5B18C1
:1053DC001BB20021B0F90840CE18A642C4BF631A14
:1053EC001BB2002B2BDDC06AD61014FB0611014436
:1053FC0002F0070001228240012DD2B216D0022DFC
:10540C000BD0E5B9D243D2B20B44994217D011F864
:10541C00010B104001F8010CF7E70B4499420ED038
:10542C0011F8010B504001F8010CF7E70B449942BD
:10543C0005D011F8010B104301F8010CF7E770BD12
:10544C00F0B50029BDF8146076DBB0F90850A9421C
:10545C0072DA002ABCBFD21813B2B0F90A40B8BF36
:10546C000022D718A742C4BFA31A1BB2002B63DDBE
:10547C00C2F3C404C76A15FB041112F00702DBB2B5
:10548C0007EB010423D0C2F10802D2B22C4D934297
:10549C003CBF4FF0FF0CA2EB030EAD5C3CBF4CFAD3
:1054AC000EFC0CEA0505012E07D0022E2ED04EB9AB
:1054BC0017F801C02CEA050503E017F801C045EA0E
:1054CC000C057D54934237D3B0F908100C449A1A4A
:1054DC00D2B2072A0ED9022E1DD113462178C94308
:1054EC002170083BB0F90810DBB2072B0C44F5D83F
:1054FC0002F0070202B3134B012E9B5C19D0022E53
:10550C001BD0CEB9227822EA030314E017F801C0AD
:10551C0085EA0C05D5E7002E14BFFF2500251346A0
:10552C002570083BB0F90810DBB2072B0C44F7D8F8
:10553C00DEE7227813432370F0BD22785340FAE75C
:10554C005C8C0D00648C0D0070B41446827EBDF82A
:10555C000C60022A0DD0032A18D0012A11D102891D
:10556C00E443144424B203960A46214670BCFFF768
:10557C0067BF42890589E44319441444691A24B26B
:10558C0009B20396224670BCFFF716BF4589194431
:10559C00691A09B2E7E730B41446827EBDF80850A8
:1055AC00022A0DD0032A18D0012A11D1E21804893D
:1055BC00A41A24B202950A46214630BCFFF7FCBE61
:1055CC000289C9431144E2184489A41A09B224B2CD
:1055DC000295224630BCFFF733BF4289C9431144C0
:1055EC0009B2E7E72DE9F8430446806A002842D067
:1055FC00A16C02F0D5F9474905222046FFF729FD99
:10560C00217A01392046C9B2FFF7BCFCB4F90A3043
:10561C00DE1D48BF03F10E06D4E90A052389F610F6
:10562C0013FB06F615FA86F600283AD094F93010DA
:10563C0002F0C4F9A06A036840219B6898470127CF
:10564C00B542A06A24D01F2F0CD902F0BEF994F9F0
:10565C003010A06A02F0B2F9A06A036840219B687E
:10566C0098470127A06A15F8011B036801379B684E
:10567C009847FFB2E4E7606A18B104F1380100F012
:10568C00D3FB94F93600002180B202F0DEFAB2E7C7
:10569C0002F09BF9A06A78B3E16CBDE8F84302F024
:1056AC007FB994F93500012180B202F0CEFAB542EF
:1056BC00F0D0606A15F8019B18B1494600F022FC45
:1056CC00F5E708274FF0800894F9330009EA080140
:1056DC0080B202F0BAFA94F93400012180B202F0DF
:1056EC00B4FA94F93400002180B202F0AEFA013F12
:1056FC004FEA5808E8D1DAE794F93600012180B274
:10570C0002F0A3FA606A18B1BDE8F84300F073BB6D
:10571C00BDE8F883888C0D0008B5024B1B689B68AC
:10572C00019308BD6802030008B5024B1B68DB68D7
:10573C00019308BD6802030008B5024B1B689B6807
:10574C00019308BD2C02030008B5024B1B68DB68F3
:10575C00019308BD2C02030008B5024B1B681B69A2
:10576C00019308BD2C02030008B5024B1B685B6952
:10577C00019308BD2C02030008B5024B1B685B6843
:10578C00019308BD1802030008B5024B1B68DB68C7
:10579C00019308BD1802030008B5024B1B685B6936
:1057AC00019308BD1802030008B5024B1B689B68E7
:1057BC00019308BD7802030008B5024B1B681B6DF2
:1057CC00019308BD7802030008B5024B1B689B6D62
:1057DC00019308BD7802030008B5024B1B681B6ED1
:1057EC00019308BD7802030008B5034B1B68D3F87E
:1057FC009830019308BD00007802030008B5034BF4
:10580C001B68D3F8A830019308BD00007802030090
:10581C0008B5034B1B68D3F8B430019308BD0000E6
:10582C007802030008B5034B1B68D3F8D8300193FA
:10583C0008BD00007802030008B5034B1B68D3F8C1
:10584C00DC30019308BD00007802030008B5034B5F
:10585C001B68D3F8E830019308BD00007802030000
:10586C0008B5034B1B68D3F8EC30019308BD00005E
:10587C007802030008B5034B1B68D3F8F030019392
:10588C0008BD00007802030008B5034B1B68D3F871
:10589C000031019308BD00007802030008B5034BEA
:1058AC001B68D3F80431019308BD00007802030093
:1058BC0008B5024B1B681B6B019308BD4802030023
:1058CC0008B5024B1B685B6B019308BD48020300D3
:1058DC0008B5024B1B685B6C019308BD48020300C2
:1058EC0008B5024B1B689B6C019308BD4802030072
:1058FC0008B5024B1B68DB6C019308BD4802030022
:10590C0008B5024B1B685B6D019308BD4802030090
:10591C0008B5024B1B685B69019308BD6402030068
:10592C0008B5024B1B681B68019308BD3C020300C1
:10593C0008B5024B1B68DB68019308BD3C020300F1
:10594C0008B5024B1B681B69019308BD3C020300A0
:10595C0008B5024B1B685B69019308BD3C02030050
:10596C0008B5024B1B689B69019308BD3C02030000
:10597C0008B5024B1B68DB69019308BD3C020300B0
:10598C0008B5024B1B681B6A019308BD3C0203005F
:10599C0008B5024B1B689B6A019308BD3C020300CF
:1059AC0008B5024B1B681B68019308BD2802030055
:1059BC0008B5024B1B68DB68019308BD2802030085
:1059CC0008B5024B1B689B69019308BD28020300B4
:1059DC0008B5024B1B68DB69019308BD2802030064
:1059EC0008B5024B1B681B6A019308BD2802030013
:1059FC0008B5024B1B685B6A019308BD28020300C3
:105A0C0008B5024B1B689B6A019308BD2802030072
:105A1C0008B5024B1B68DB6A019308BD2802030022
:105A2C0008B5024B1B681B6B019308BD28020300D1
:105A3C0008B5024B1B685B6B019308BD2802030081
:105A4C0008B5024B1B681B6C019308BD28020300B0
:105A5C0008B5024B1B681B68019308BD300203009C
:105A6C0008B5024B1B685B69019308BD300203004B
:105A7C0008B5024B1B68DB69019308BD30020300BB
:105A8C0008B5024B1B681B6A019308BD300203006A
:105A9C0008B5024B1B685B6A019308BD300203001A
:105AAC0008B5024B1B68DB6B019308BD3002030089
:105ABC0008B5024B1B681B6C019308BD3002030038
:105ACC0008B5024B1B685B6C019308BD30020300E8
:105ADC0008B5024B1B681B68019308BD4C02030000
:105AEC0008B5024B1B685B68019308BD4C020300B0
:105AFC0008B5024B1B681B69019308BD4C020300DF
:105B0C0008B5024B1B685B69019308BD4C0203008E
:105B1C0008B5024B1B689B69019308BD4C0203003E
:105B2C0008B5024B1B68DB69019308BD4C020300EE
:105B3C0008B5024B1B681B6A019308BD4C0203009D
:105B4C0008B5024B1B685B68019308BD600203003B
:105B5C0008B5024B1B689B68019308BD60020300EB
:105B6C0008B5024B1B68DB68019308BD600203009B
:105B7C0008B5024B1B689B69019308BD60020300CA
:105B8C0008B5024B1B68DB69019308BD600203007A
:105B9C0008B5024B1B685B6B019308BD60020300E8
:105BAC0008B5024B1B681B6D019308BD6002030016
:105BBC0008B5024B1B685B68019308BD200203000B
:105BCC0008B5024B1B685B69019308BD20020300FA
:105BDC0008B5024B1B68DB6A019308BD2002030069
:105BEC0008B5034B1B68D3F88830019308BD00003F
:105BFC002002030008B5034B1B68D3F894300193C3
:105C0C0008BD00002002030008B5024B1B685B684E
:105C1C00019308BD4002030008B5024B1B689B684A
:105C2C00019308BD4002030008B5024B1B68DB68FA
:105C3C00019308BD4002030008B5024B1B681B69A9
:105C4C00019308BD4002030008B5024B1B685B6959
:105C5C00019308BD4002030008B5024B1B689B6909
:105C6C00019308BD4002030008B5024B1B68DB69B9
:105C7C00019308BD4002030008B5024B1B681B6A68
:105C8C00019308BD4002030008B5024B1B681B6B57
:105C9C00019308BD4002030008B5024B1B685B6B07
:105CAC00019308BD4002030008B5024B1B681B6C36
:105CBC00019308BD4002030008B5024B1B685B6CE6
:105CCC00019308BD4002030008B5024B1B68DB6B57
:105CDC00019308BD4402030008B5024B1B681B6806
:105CEC00019308BD1C02030008B5024B1B685B68DE
:105CFC00019308BD1C02030008B5024B1B689B688E
:105D0C00019308BD1C02030008B5024B1B685B6ABB
:105D1C00019308BD1C02030008B5024B1B68DB6A2B
:105D2C00019308BD1C02030008B5024B1B685B6C99
:105D3C00019308BD1C020300002240681146FFF7C6
:105D4C009BBF002240681146FFF7A6BF40680022A7
:105D5C00FFF79ABF4068002281F00101FFF784BF72
:105D6C00002340681A461946FFF776BF00234068A7
:105D7C001A461946FFF768BF002240681146FFF724
:105D8C005BBF002240681146FFF746BF4068002207
:105D9C000221FFF749BF002340681A46FFF734BFC2
:105DAC00024B03225A60024A1A60704744E60320F1
:105DBC00988C0D000021FFF77BBE0021FFF780BE01
:105DCC0010B5044608462170FFF752FE00236360AD
:105DDC00204610BD10B504460078FFF7EBFF48B91C
:105DEC0020784FF6FF71FFF733FE2078BDE81040A6
:105DFC00FFF7E3BF10BD0078FFF7DFBF400830B5F9
:105E0C001860002418688842E5B206D90134082CC1
:105E1C0002D040081860F5E70725024B5B5D137054
:105E2C0030BD00BFCC8C0D002DE9F04306468FB081
:105E3C0000780C46FFF7BEFF00281BDB35781422D8
:105E4C00002109A802F0D0F80B23002209A928464A
:105E5C00ADF82430FFF71CFE9DF82D3013B19DF8E2
:105E6C002C5055B10027B946B846012523795DB1B0
:105E7C00C3B100200FB0BDE8F083DDF830809DF891
:105E8C0034909DF83570F1E7002B35D1A36843456C
:105E9C0008D18DF820908DF82170BDF82020A389B1
:105EAC009A42E6D00023A1688DF80F300A9804AB13
:105EBC000DF10F02FFF7A2FF217985B989B9A3680B
:105ECC0043450ED38DF820908DF82170BDF820201D
:105EDC00A3899A4205D1049B434502D1C9E7002905
:105EEC00F9D100230193637B00939DF80F20237B52
:105EFC003078FFF7D5FDBCE7CDE900552B462A4697
:105F0C000121F5E708B50078FFF7AAFDC0B208BD7E
:105F1C0010B5094B094C022200201A60084B206076
:105F2C00A080A071A360FFF743FE2046054A0649F6
:105F3C00BDE8104001F0F6BE58E603204CE6032005
:105F4C000000FFFF6CE5032021410D0010B5044655
:105F5C000068FFF7C9FE204610BD10B50446006866
:105F6C0008B1FFF7C1FE0023C4E90133236010BD63
:105F7C0038B504460D4600680131FFF7BDFE10B17F
:105F8C00C4E90005012038BD10B50368044623B1EF
:105F9C0043688B4201D3012010BD2046FFF7E8FF78
:105FAC000028F9D0A368002BF5D122681370F2E712
:105FBC0037B50D46114601920446FFF7E5FF019AED
:105FCC0028B92046FFF7C9FF204603B030BDA260B8
:105FDC002946206801F0E0FF2268A3680021D15413
:105FEC00F2E7002313B5C0E9003304468360037362
:105FFC0041B10846019102F02DF801990246204664
:10600C00FFF7D6FF204602B010BD13B5044659B1B8
:10601C000846019102F01EF8019902462046FFF74E
:10602C00C7FF204602B010BDFFF797FFF9E758B540
:10603C000E462AB121B18468A34202D300230B700F
:10604C0058BDE41A013A0168944228BF1446194419
:10605C002246304602F006F800233355F0E770472D
:10606C007047704770470000064B994210B500F11D
:10607C000C0405D0084601F061FE002808BF00247E
:10608C00204610BD1C8E0D00064B994210B500F138
:10609C000C0405D0084601F051FE002808BF00246E
:1060AC00204610BD1C8E0D00064B994210B500F118
:1060BC000C0405D0084601F041FE002808BF00245E
:1060CC00204610BD1C8E0D0010B56821044601F051
:1060DC002EFE204610BD10B52821044601F027FEE7
:1060EC00204610BD10B53021044601F020FE20469C
:1060FC0010BDFDF7CCBFFDF7CABFFDF7C8BF10B58B
:10610C00036804469B689847A368013BA3602BB9BE
:10611C0023682046DB68BDE81040184710BD10B559
:10612C000446006808B1FFF7DBFB204610BD0000F9
:10613C0010B5044B04461868FFF7DAFB01232370F3
:10614C0010BD00BF64E6032010B5044B044618686C
:10615C00FFF7D6FB0023237010BD00BF64E60320BD
:10616C00F0B50025EC1C8C420DD86E1C445D875D8F
:10617C00974205D12644B14205D31D60601CF0BD89
:10618C0001342544EEE70020F9E72DE9F3470446F6
:10619C009DF828701E46894601AB90460A46016A56
:1061AC00FFF7DEFF256AB31C17BB08B35F193F1A54
:1061BC001F2F19D8DDF8049009F1020AA5EB09028A
:1061CC00121A00EB090106EB0A0092B2214420449A
:1061DC0001F0F0FE731C04F809303246414604EB22
:1061EC000A0001F0D9FE2762206A02B0BDE8F087F0
:1061FC002B441F2BF8D8731C6355A81C2544206214
:10620C00324685F801904146204401F0C5FE236AD0
:10621C0033442362E8E70000024A00210A20FFF71A
:10622C00B7BC00BF95570D00022A38B5044607D0FD
:10623C00032A11D0012A01D10B682360002038BD3C
:10624C0008200D68FDF71FFF03460028F5D095E8E0
:10625C00030083E80300F0E700680028EED0082173
:10626C0001F065FDEAE730B40D4611461A460368A5
:10627C0009682868D3E90043A44630BC604710B5D0
:10628C008368044613B1032201469847204610BD8B
:10629C0010B504465830FFF7F2FF04F14800BDE892
:1062AC001040FFF753BEA0F13003DAB2092A01D82F
:1062BC0018467047A0F16103052B01D85738704779
:1062CC00A0F14103052B94BF37384FF0FF307047D6
:1062DC0010B5002304460370FFF72AFF204610BDBB
:1062EC0010B5037804460BB1FFF72EFF204610BD06
:1062FC0082B00346086849686A4603C26A4603CA04
:10630C0018601846596002B0704708B582798B79CD
:10631C009A4206D1062201F031FEB0FA80F0400913
:10632C0008BD0020FCE74FF0FF33036083800020A2
:10633C007047002108B5016041600246FFF7F3FF8A
:10634C009171104608BD000001220261064A1168D5
:10635C000160516841601189927A82720022018138
:10636C00C0F80B20C2737047248E0D0010B50B695A
:10637C00036101F11002034651F8044B43F8044B3E
:10638C009142F9D110BD10B50B460446B1B1012AAA
:10639C0001F110020AD1014653F8040B41F8040B29
:1063AC009342F9D101232361204610BD411E12F8FE
:1063BC00010D01F8010F9A42F9D1F3E7102201F017
:1063CC0013FEF1E738B5044615461A46FFF7DBFF16
:1063DC00A581204638BD000008B5026922B9808924
:1063EC00003818BF012008BD0249102201F0C6FD7B
:1063FC00F6E700BF448E0D000069704738B50C46B7
:10640C0014220021054601F0EFFD23693BB9627BA4
:10641C002B74237B43EA02232B80284638BD0123AF
:10642C002B7404F110022B4654F8041B43F8041B84
:10643C009442F9D1F1E7427B007B40EA022070479D
:10644C00704708B502690B699A4206D1102201F017
:10645C0095FDB0FA80F0400908BD0020FCE7000073
:10646C0001232DE9F3410361324B1A6802605A682B
:10647C00426000251A899B7A028104468372C0F817
:10648C000B50C5730E4621B32421304601F0FDFD9F
:10649C00042821D1ADF8045001AFB51C063615F80F
:1064AC00020CFFF700FFB0F1000810DB15F8010C2F
:1064BC00FFF7F9FE00280ADB023540EA0810AE426D
:1064CC0007F8010BEBD1BDF804305BBAA3810023B4
:1064DC00236102B0BDE8F08110272421304601F081
:1064EC00D4FDA84206D827440023BC42F1D007F8BB
:1064FC00013DFAE7002FECD0705DFFF7D4FE0306E8
:10650C0015D40001013F5FFA80F804F807802421BC
:10651C00304601F0BAFD0135A84208D9705DFFF78D
:10652C00C2FE40B20028A4BF40EA0800E055013585
:10653C00D3E700BF248E0D0013B504460191FFF77D
:10654C0003FF20460199FFF78BFF204602B010BDD8
:10655C0030B49DF8085012B9006A30BC70470295EF
:10656C0030BCFFF712BE1FB50446024600F11F01F6
:10657C00002302F8013B9142FBD1236200930622D7
:10658C0001238DF80F2019460DF10F022046FFF75D
:10659C00DFFF204604B010BD73B50A460E4601ABB2
:1065AC00016A0446FFF7DCFD054678B10198226AC2
:1065BC004119121A2144521B204401F0EDFC206AAF
:1065CC00401B206231462046FFF7E6FF02B070BD4B
:1065DC0038B54FF6FF730025044643800E2229463A
:1065EC0005700571063001F0FFFC04F11400FFF793
:1065FC00ABFE04F12800FFF7A7FE044904F13C00B0
:10660C00FFF7EFFC6565204638BD00BFDC800D0050
:10661C0010B5D0E9063203EBC2029342184606D0FD
:10662C00046824888C4203F10803F6D110BD0020C5
:10663C00FCE70000F0B5064685B01F460D46002964
:10664C0050D0002A4ED004682378F42A28BFF422B4
:10665C0043B32379980709D5A08903920023FFF748
:10666C00D7F80028039A03DA05B0F0BD6FF0770075
:10667C0034682379D90609D5012F07D0A0890023C6
:10668C00294605B0BDE8F040FFF7FEB89B06EBD5F8
:10669C00022FE9D0A0890023294605B0BDE8F040BF
:1066AC00FFF7FCB860884FF6FF7188421CD0217947
:1066BC004E0701D5012F04D10B0709D46FF07700D9
:1066CC00D2E7A189009313462A46FFF7B5F8CBE72A
:1066DC00022FF3D00023A189009313462A46FFF71B
:1066EC00A1F8C1E70248BFE76FF0D100BCE700BFDB
:1066FC00F2FEFFFF2DE9F041002606600746282038
:10670C000C46FDF7C0FC051E05F10C080FD001234B
:10671C00C5E90133084B2B604046FFF715FE0FCC43
:10672C002E6285F8246046460FC623683360C7E99D
:10673C0000853846BDE8F081EC8D0D0070B5002564
:10674C00056006463020FDF79EFC044688B1012307
:10675C00C0E90133094B03604FF6FF7383810E30A0
:10676C00FFF7E7FDC4E90655C4E90855C4E90A5525
:10677C00A57574600C343460304670BD088E0D0005
:10678C0037B50D46044601A8FFF7A2FD2A6852F85A
:10679C00023F23605368636001A8FFF7A1FD204608
:1067AC0003B030BD30B5054687B00C4601A8FFF7E5
:1067BC008FFD2A68236812881B889A420DD12946BE
:1067CC0002A8FFF7DDFF214604A8FFF7D9FF04A9B3
:1067DC0002A8FFF79AFD044600B9002401A8FFF7B0
:1067EC007FFD204607B030BD10B504465420FDF7A0
:1067FC004AFC014660B10023C0E90033C0E9023312
:10680C00C0E90433C0E906330362C362C363C364E3
:10681C00216019B9094A0A20FFF7BAF90020FEF7DE
:10682C00C3FF20B1054A00210A20FFF7B1F9216806
:10683C0003480022FFF71EF8204610BD95570D00A7
:10684C005D6C0D0010B50B4C2378BFF35B8FDB0731
:10685C000ED42046FDF728FC50B10748FFF7C4FFC3
:10686C002046FDF726FC054A0549034801F05AFA73
:10687C00014810BD5CE6032068E603206CE50320AC
:10688C00656A0D0030B50368093B012B8DB00446D9
:10689C000D4611D8FFF7D6FFA1880068FFF7B8FEA8
:1068AC00034658B92022CDE904200B4A00920B492B
:1068BC0004AA3220FFF774F90DB030BD6A6D002ABE
:1068CC00FAD0D4E9032105F14C00CDE90312AC6DEB
:1068DC0004AA03A9A047EFE7FB8C0D00D48C0D0094
:1068EC0008B50020FEF760FF00EAE07008BD08461E
:1068FC0011B90A46FEF760BF096A0022FAE707B52C
:10690C00084629B90A4603B05DF804EBFEF75CBFF4
:10691C0001210190FFF740FE01980022016AF2E785
:10692C0038B504461546FFF7E2FF00280ADB294676
:10693C002046FFF7E4FF002804DBBDE838400020C8
:10694C00FEF74ABF38BD0368D8690028D4BF0020C1
:10695C000120704738B500230446836008200D469B
:10696C00FDF791FB18B12B6803606B684360034B18
:10697C00E360034B2060A360204638BD73620D00BA
:10698C0035620D000B68036013B15A6801325A600E
:10699C00704710B551F8043B044640F8043BFFF730
:1069AC00F1FF23680BB9FFF737FC204610BD10B57B
:1069BC0051F8043B044640F8043BFFF7E3FF204644
:1069CC0010BD10B551F8043B044640F8043BFFF7EA
:1069DC00D9FF204610BD10B50446006828B14368A5
:1069EC00013B43600BB9FFF78AFB204610BD10B585
:1069FC0004460430FFF7EFFF204610BD70B5D0E918
:106A0C000053044605EBC306AE4204D0281DFFF725
:106A1C00E2FF0835F8E72068FFF766F9204670BDFD
:106A2C0070B5D0E90053044605EBC306AE4204D062
:106A3C00281DFFF7D0FF0835F8E72068FFF754F959
:106A4C00204670BD10B504462430FFF7E9FF04F171
:106A5C001800FFF7D3FF10BDF8B50468064624B341
:106A6C0004F14400FFF70BFC04F13400FFF707FCC2
:106A7C0004F12400FFF703FCD4E9065305EBC3072C
:106A8C00AF4204D0281DFFF7A6FF0835F8E7A06930
:106A9C00FFF72AF904F10C00FFF7C2FF2046FFF7BD
:106AAC00ADFF5421204601F042F93046F8BD826812
:106ABC0010B50AB901F03FF9BDE81040C36818479A
:106ACC008842F8B504460D46164614D9904213D2A6
:106ADC00A2F10806751AA1F108072C44B74218D088
:106AEC001CB131462046FFF76CFF301DFFF773FFDA
:106AFC00083E083CF2E70CD0B5420AD01CB129463E
:106B0C002046FFF75EFF281DFFF765FF08350834A8
:106B1C00F2E7F8BD2DE9F041D0E90043054688467F
:106B2C0004EBC307A74203D100263046BDE8F08131
:106B3C0041462046FFF736FE064608B90834F1E711
:106B4C00002CF1D0201DFFF746FFD5E9003204F1EF
:106B5C00080103EBC2022046FFF7B2FF6B68013B52
:106B6C006B60E2E7F0B507468BB06846FFF7B0FB09
:106B7C003B68D3E9064504EBC505AC422BD0242277
:106B8C00002101A801F030FA23680022188801A91D
:106B9C00FEF75CFE064608B10834EEE79DF80830B7
:106BAC00012BF9D16846FFF7CFFA236831461888D4
:106BBC00FEF71AFE051E08DB6846FFF7B9FA3868BF
:106BCC0021461830FFF7A6FF35466846FFF788FBCD
:106BDC0028460BB0F0BD6FF0A905F6E7F7B50446F3
:106BEC0046686846FFF7EDFED4E901739F4212DB5D
:106BFC000137002F29DDF800FFF76EF80546F0B1DC
:106C0C00D4E9001201EBC202FFF75AFF2068FFF72C
:106C1C006BF82560A7602368626803EBC60603EB7C
:106C2C00C202314606F10800FFF74AFF1EB1694661
:106C3C003046FFF7C6FE636801336360012501A887
:106C4C00FFF7C9FE284603B0F0BD0025DEE70000C3
:106C5C002DE9F04105468EB003A80C46FFF738FB32
:106C6C002E68042E6BD007D8032E28D003A8FFF76C
:106C7C0037FB0EB0BDE8F081A6F10C03032BF5D861
:106C8C00A9892046FFF7C4FC07460028EED0E36C28
:106C9C00002BEBD01022002107A801F0A5F90D2E36
:106CAC0006978DF81C6040F092806B680993062360
:106CBC000893236D06A904F144009847D6E704A86D
:106CCC00FFF73CFD049BAA891A8069680498083177
:106CDC000230FFF70DFB04A906A8FFF772FE06A908
:106CEC0004F11800FFF77AFF054607A8FFF773FEBB
:106CFC00202306938DB93E4B3E49009332202B4600
:106D0C0006AA0795FEF74CFF049B29461888FEF748
:106D1C006BFD05A8FFF75FFEA8E7374A009200233A
:106D2C003449079306AA0120FEF73AFFE36A002BC9
:106D3C00EFD004A904F12400FFF7B9FEE9E7A98913
:106D4C002046FFF765FC064600288FD00568D5E97C
:106D5C0006314FF6FF722A8003EBC101994203D032
:106D6C0053F8080B4280F9E7D5E9037307EBC30826
:106D7C00B84504D0381DFFF72EFE0837F8E700237E
:106D8C002B61D5E9067307EBC308B84504D0381D51
:106D9C00FFF721FE0837F8E70023EB61AB72E36BDA
:106DAC0023B1314604F13400FFF781FE0023202289
:106DBC00CDE90623114A00920E4906AA0120FEF7DE
:106DCC00EFFE314604F11800FFF7A4FE4EE70F2E3C
:106DDC007FF46FAF6B6809932B7A03F00102C3F356
:106DEC0040038DF829308DF82820082360E700BF78
:106DFC00138D0D00D48C0D00398D0D00568D0D00AA
:106E0C0013B500230446D1E90002C1E9003323681D
:106E1C00009320606368626001A80193FFF7DBFDBB
:106E2C00204602B010BD13B50B460246D0E9000156
:106E3C006C4684E8030093E8030082E8030094E8BE
:106E4C00030083E8030002B010BD38B505460C46BC
:106E5C00FFF7E9FFAB68A268AA60A360EB68E26881
:106E6C00EA60E36038BD1FB5002304460846694656
:106E7C000293FFF7EAFF21466846FFF7E6FF6846F4
:106E8C00FFF7FDF9204604B010BD70B50E4688B072
:106E9C00044601921D46FFF79BFB33780199237141
:106EAC0004F13C00FFF7B1F804F14C0685B10C9BE2
:106EBC00029502A904A80393FFF74CFD04A93046E0
:106ECC00FFF7D1FF04A8FFF7DAF9204608B070BD30
:106EDC000695F3E72DE9F04786B007461D46682076
:106EEC000023894692460493FDF7CDF8061E06F161
:106EFC000C081DD001233446C6E90133154B44F868
:106F0C00203B9AF800308DF80C30109B00934A46C9
:106F1C000F9B03A94046FFF7B8FF0FCD0FC42B689A
:106F2C000E9D23600FCD06F134040FC42B68236033
:106F3C0004A93846CDE90486FFF762FF05A8FFF7E0
:106F4C004AFD396819B9044A0A20FEF721FE06B039
:106F5C00BDE8F087D08D0D0095570D008842F8B52F
:106F6C0004460D46164614D9904213D2A2F10806D7
:106F7C00751AA1F108072C44B74218D01CB1314640
:106F8C002046FFF714FD301DFFF725FD083E083C99
:106F9C00F2E70CD0B5420AD01CB129462046FFF7C7
:106FAC0006FD281DFFF717FD08350834F2E7F8BD7C
:106FBC0070B50E1E054611DDF000FEF78DFE044681
:106FCC0058B1D5E9001201EBC202FFF7C7FF2868E0
:106FDC00FEF78AFE2C60AE60012070BD0024F6E73F
:106FEC0073B5044645686846FFF7E1FCD4E9011324
:106FFC00994210DA2368626803EBC50503EBC20201
:10700C00294605F10800FFF7A9FF8DB96368013324
:10701C006360012606E001312046FFF7C9FF0646F2
:10702C000028E7D101A8FFF7D6FC304602B070BDAE
:10703C0069462846FFF7BBFCE8E78842F8B50446EA
:10704C000D46164614D9904213D2A2F10806751AB1
:10705C00A1F108072C44B74218D01CB13146204688
:10706C00FFF797FC301DFFF7B6FC083E083CF2E733
:10707C000CD0B5420AD01CB129462046FFF789FC3A
:10708C00281DFFF7A8FC08350834F2E7F8BD70B5E9
:10709C000E1E054611DDF000FEF71EFE044658B12B
:1070AC00D5E9001201EBC202FFF7C7FF2868FEF713
:1070BC001BFE2C60AE60012070BD0024F6E773B59A
:1070CC00044645686846FFF764FCD4E9011399420D
:1070DC0010DA2368626803EBC50503EBC20229468C
:1070EC0005F10800FFF7A9FF8DB9636801336360F0
:1070FC00012606E001312046FFF7C9FF06460028AD
:10710C00E7D101A8FFF767FC304602B070BD6946B5
:10711C002846FFF73EFCE8E72DE9F04F1746A1B0F3
:10712C0080460AA80E46FFF7D3F83C68237953B97A
:10713C0039464046FFF72DFC0AA8FFF7D1F8404628
:10714C0021B0BDE8F08F3368D3E9035305EBC303DB
:10715C00039304F1280A04F1140B039B9D4221D0E4
:10716C00D5F80090584609F11401FFF76AF9B8B147
:10717C0009F128015046FFF764F988B12368D9F862
:10718C000020534033F47F430AD12022CDE915234C
:10719C005E4A009215AA5E493220FEF701FDC7E750
:1071AC000835DAE75046FFF717F960B9594901225B
:1071BC0015A815ADFFF7E7F80FCDD446ACE80F00D6
:1071CC002B68CCF800303368D3E9005305EBC30BC4
:1071DC005D45A94651466ED055F8080BFFF731F9BD
:1071EC000028F5D004F1140A5046FFF7F5F888B9D9
:1071FC00494B48491A88013292B21A8015A80123CA
:10720C0015ADFFF7DFF80FCDD446ACE80F002B68B7
:10721C00CCF800302822002116A800F0E5FE3F4BE8
:10722C001593514604A8FFF7E9F804AB18AA0DF121
:10723C00200C18685968154603C5083363452A465F
:10724C00F7D11868286023798DF85830D9F80030B8
:10725C009B8AADF87430E36B1793314B0022A11D60
:10726C0015A8CDE91E34FEF7FBFA00287FF460AFB9
:10727C0001232370346839460C340DA8FFF789FBC1
:10728C0020460DA9FFF71BFF04460EA8FFF7A3FB32
:10729C00002C7FF44DAF2023CDE90D34214B00930E
:1072AC000DAA234677E739464046FFF772FB0CA838
:1072BC00FFF791FB40E70BA8FFF71CFA514615A806
:1072CC00FFF79CF80B9A0023143215A90120FEF746
:1072DC0095FA0028E7D135680BA90DA8FFF767FBD5
:1072EC0028460DA9FFF77CFE05460EA8FFF773FB99
:1072FC00002DD8D032685368126803F10053013B5B
:10730C000CA802EBC309FFF766FB6BE7758D0D004C
:10731C00D48C0D00348E0D0060E6032001002C008F
:10732C0091680D00A08D0D0010B5064C0023204671
:10733C002360FEF7CDFA2046034A0449BDE810400D
:10734C0000F0F0BC64E603206CE503202B610D001B
:10735C00F8B506460D468F180024BD420CD0336894
:10736C0015F8011B9B6830469847031E01DB1C4433
:10737C00F3E7002C08BF1C462046F8BD13B50446A5
:10738C00084659B1019100F065FE23680199DB684C
:10739C000246204602B0BDE81040184702B010BDAE
:1073AC0008B5FFF7EBFF08BD03689B68184738B5B5
:1073BC000D210546FFF7F8FF0A2104462846FFF782
:1073CC00F3FF204438BD30B58BB000238DF824304A
:1073DC00012A98BF0A2209AC0D46B1FBF2F101FB60
:1073EC00125303F0FF03092B94BF30333733DBB256
:1073FC00AA4204F8013DEFD92146FFF7BFFF0BB0BD
:10740C0030BD2DE9F04186B000AF05460E46381D63
:10741C00142114463B60FEF777FC13280ED8391D57
:10742C002846FFF7ABFF04461EB12846FFF7BFFF07
:10743C00044420461837BD46BDE8F08100F108032E
:10744C0023F00703E846ADEB030D2246411C3B68D5
:10745C006846FEF759FC69462846FFF78FFF04463D
:10746C00C546E1E7002340681A461946FEF7ECBB17
:10747C00014B024A1A6070476CE60320548E0D00D3
:10748C00024B1A68024B1A60704700BF04E50320D8
:10749C0070E603200021FEF793BB10B50446FEF7FF
:1074AC00EEFE204610BD10B50446FEF761FB84428B
:1074BC0008D01CB1BDE81040FEF74ABBBDE8104037
:1074CC00FEF74EBB10BD70B505460E461446FEF7D2
:1074DC004FFB50B144EA062040EA0540FEF730FB72
:1074EC00BDE87040E720FEF74BBB70BD0348044A73
:1074FC0004490023836000F015BC00BF74E6032030
:10750C006CE50320A7740D00014B1860704700BF99
:10751C0008E5032008B50B4B43B100F05BF9036899
:10752C001B699847002801DDAFF30080064B43B17F
:10753C0000F0CEF903681B699847002801DDAFF312
:10754C00008008BD000000000000000008B5FFF737
:10755C00E1FFFEF721F9014B186008BDD4E70320C9
:10756C000248034A0349121A00F016BD00F4032026
:10757C0004F40320B0900D0007B5002300931A46C5
:10758C006FF07701FEF736FB03B05DF804FB0000EB
:10759C0007B543880A2B08D0502B0BD1094B1B681D
:1075AC004BB103B05DF804EB1847FFF7E5FF03B0F0
:1075BC005DF804FB002300931A466FF07701FEF789
:1075CC0019FBF4E788E6032038B5124C1248134D2A
:1075DC000021FEF7A9FB2368AB42114B0CBF012223
:1075EC0000221A7002D0FFF7BBFF2560FEF7C4F82B
:1075FC00044600F001FD0B4B13B12046AFF30080A5
:10760C0000210848FEF760FBBDE838400648002121
:10761C00FEF7E6BA00F4032015750D001E1C279A20
:10762C0084E60320000000009D750D00704710B526
:10763C001821044600F07BFB204610BDF0B5037DFD
:10764C00062B8DB00E4600F104074FF0000412D04B
:10765C0000F1080515F8011D0A223046FFF7B3FEAC
:10766C00AF42044419D0002CF4D02E213046FFF741
:10767C009BFE0444EEE72F236A4639460A208DF818
:10768C000040FEF745F9684600F0E4FC336802461A
:10769C00DB68694630469847044620460DB0F0BD7D
:1076AC0010B5054B0446112240F8043B002100F0B4
:1076BC009BFC204610BD00BF7C8E0D000346074A84
:1076CC0010B543F8042B01F1100251F8044B43F8A8
:1076DC00044B9142F9D10A781A7010BD7C8E0D00C2
:1076EC0010B59DF8084044EA032343EA024242EAFB
:1076FC00016104234160037510BD000013B5054BF7
:10770C000360CB7800938B784A780978FFF7E8FF11
:10771C0002B010BD7C8E0D0041747047704708B5E7
:10772C000021007CFEF7F4F940EAE07008BD08B5D2
:10773C000121007CFEF7ECF940EAE07008BD08B5C9
:10774C00007CFEF7DDF920EAE07008BD08B5007C8E
:10775C00FEF7CEF920EAE07008BD13B50446007CB4
:10776C000191FEF7CDF90028019901DC607C20B174
:10777C00207CFEF7D5F920EAE07002B010BD007C49
:10778C00FEF7D6B910B51421044600F0D0FA204605
:10779C0010BD000010B54FF47A7304460846002162
:1077AC00C4E90113044B2360012320746374114654
:1077BC00FEF78EF9204610BD908E0D00007C002245
:1077CC00FEF78EB910B514220446002100F00CFC13
:1077DC00204610BD10B5104C88B003A8FFF7F2FF7F
:1077EC002178BFF35B8F11F0010111D1204601917B
:1077FC00FCF75AFC019958B103AA0848FFF7CAFFD5
:10780C002046FCF756FC064A0649044800F08AFA62
:10781C00024808B010BD00BF8CE6032090E60320A0
:10782C006CE5032029770D0070474174704708B54B
:10783C00007CFEF7ADF820EAE07008BD08B5007CCE
:10784C00FEF77EF820EAE07008BD08B5007CFEF774
:10785C0087F840EAE07008BD08B5007CFEF778F8C0
:10786C0040EAE07008BD007CFEF782B837B5457C75
:10787C0004462DB1207C03B0BDE83040FEF758B86B
:10788C00007C0191FEF784F800280199F2DC28466F
:10789C0003B030BD10B51421044600F048FA204660
:1078AC0010BD000010B54FF0000C04460846114600
:1078BC004FF47A72C4E901C2044A22600122207496
:1078CC0062741A46FEF72CF8204610BDC08E0D00CF
:1078DC0013B50E4C2178BFF35B8F11F0010112D15F
:1078EC0020460191FCF7E0FB019960B1084A094B75
:1078FC000948FFF7D7FF2046FCF7DBFB074A08498E
:10790C00054800F00FFA044802B010BDA4E60320AD
:10791C00A8E603202CE70320B0E703206CE5032046
:10792C0035780D007047F8B5064615460C468F188D
:10793C00BC4206D0336814F8011B9B68304698474C
:10794C00F6E72846F8BD007C0022FEF749B8007C1B
:10795C000021FEF74DB8007C0021FEF751B8007CE9
:10796C000021FEF755B8007C0021FEF759B810B580
:10797C001421044600F0DBF9204610BD10B54FF47D
:10798C007A73044608460021C4E90113034B2360B3
:10799C0020741146FEF754F8204610BDF08E0D00F1
:1079AC00007C0022FDF7FCBF0023007C1A46194620
:1079BC00FDF7FEBF007C0022FEF702B8C9B2FFF74C
:1079CC00F9BF007C0022FEF703B80121FFF7F9BFD5
:1079DC00002240681146FEF72FB90022406811467C
:1079EC00FEF74AB9002240681146FEF755B94068C7
:1079FC000022FEF749B94068002281F00101FEF730
:107A0C0033B9002340681A461946FEF725B90022FF
:107A1C0040681146FEF700B9406800220221FEF7CB
:107A2C0003B9002340681A46FEF7EEB8024B042255
:107A3C005A60024A1A607047C4E70320188F0D0081
:107A4C00002340681A46FEF7DFB840680022022186
:107A5C00FEF7EAB8002240681146FEF7DDB80022B6
:107A6C0040681146FEF7E8B8002340681A461946EC
:107A7C00FEF7EAB8002340681A461946FEF7ECB840
:107A8C0040680021FEF710B940680021FEF714B9D8
:107A9C004068002281F00101FEF7E6B84068002240
:107AAC00FEF7F2B8002240681146FEF7F5B8002246
:107ABC0040681146FEF7E0B82DE9F043002495B07C
:107ACC0016460D460746FFF7EBFD214618220EA879
:107ADC00009400F089FA4023CDE90C3421466B4622
:107AEC000CAA3046FDF720FE044600284CD1024675
:107AFC0001216868FEF7A0F80221804622466868DA
:107B0C00FEF79AF8009E81462146002E3CD00029B3
:107B1C003AD17368022B03D00A2B11D0F669F4E723
:107B2C00B8F1000F0AD0716906A8043107ADFFF750
:107B3C00E5FD0FCD3C1D0FC42B6823704146EDE7CE
:107B4C00B9F1000F01D14946E8E77469102201A888
:107B5C0000F04AFA06238DF8143001AD04F1080345
:107B6C001834186859682A4603C20833A3421546CC
:107B7C00F7D101A906A807ADFFF7A0FD0FCD3C1D5D
:107B8C000FC42B682370DEE70098FDF7C5FD38465F
:107B9C0015B0BDE8F0830000024B034A1A600022C6
:107BAC005A607047CCE70320548F0D00232813B57F
:107BBC0002D9002002B010BDA0F10B03022B1AD881
:107BCC00174C2178BFF35B8F11F001010BD12046CC
:107BDC000191FCF769FA019928B11248FEF7F0F807
:107BEC002046FCF766FA0F4B1878FDF749FF002882
:107BFC00DFD10120DEE7012809D800F06BF8002165
:107C0C00007CFDF715FF80F00100C0B2D2E7093807
:107C1C000128EED8FFF75CFE007CFDF7B1FEF2E721
:107C2C0038E603203CE60320232838B504460D46ED
:107C3C000AD8FF2908D0FFF7B9FF28B129462046FA
:107C4C00BDE83840FDF778BD38BD38B504460D4663
:107C5C00FDF77AFDFF2810D0062804D84D2323FA0F
:107C6C0000F0C30709D42046FFF7A0FF28B129462E
:107C7C002046BDE83840FDF76FBD38BD10B5044651
:107C8C00FDF762FD031FDBB2012B08D92046FFF77D
:107C9C008DFF20B12046BDE81040FDF765BD0020EA
:107CAC0010BD000038B50023202543801423044662
:107CBC000380856005610649284600F03AF80449BE
:107CCC006060284600F035F8E060204638BD00BF03
:107CDC00888F0D0030B50F4D2978BFF35B8F11F0F5
:107CEC00010487B013D12846FCF7DEF978B101A85E
:107CFC00FFF7D8FF01AA21460748FFF73FFE2846A9
:107D0C00FCF7D7F9054A0649034800F00BF802487E
:107D1C0007B030BDD8E70320DCE703206CE5032077
:107D2C0031790D000B460146184600F019B9FCF7E5
:107D3C00AEB9FCF7AAB908B5FDF7EEFF014900F0A2
:107D4C00F9B800BFA48F0D007FB500241023CDE936
:107D5C000234036800949E698DF8044015466B4606
:107D6C001268B0479DF8043003F00603062B03BFDE
:107D7C00009B2B600120204604B070BD00989042FF
:107D8C0014BF01200620704710B5034B0360044656
:107D9C0000F0CDF8204610BDE48F0D0010B5044660
:107DAC00FFF7F2FF20460821FFF7C1FF204610BD68
:107DBC002DE9F0411F46DDE90834DDF818809845BF
:107DCC000646154607D1079900F0B4F818B165714D
:107DDC000020BDE8F0813946304600F0ABF80028B1
:107DEC00F6D00123C4F800802571A371F0E738B5F3
:107DFC0015461C4600F09EF820B10823E3600623CC
:107E0C002560237138BD73B505460C4601921E469C
:107E1C0000F090F850B9032E08D82368019A5B69DA
:107E2C002946204602B0BDE87040184702B070BD2C
:107E3C0010B5034B03600446FFF7A6FF204610BDA8
:107E4C0044900D0010B50446FFF7F2FF20460C21BC
:107E5C00FFF76DFF204610BDF7B5089F974205460A
:107E6C000E4614460AD0A86802680897156A31466F
:107E7C002246AC4603B0BDE8F0406047194601937A
:107E8C0000F058F8019B0028EDD0062003B0F0BD9F
:107E9C002DE9F14F0D461946DDE90A4BDDE90CA63B
:107EAC0081461746984600F045F890B1002D346095
:107EBC00377109DB61198A450CBF06210121B171AB
:107ECC00002001B0BDE8F08F0235F9D10123B37168
:107EDC00F6E7544506D15946484600F02BF808B150
:107EEC007771EDE7D9F808000368CDE90CA6CDE968
:107EFC000A4BDC693A4643462946A44601B0BDE824
:107F0C00F04F60472DE9F04107460C4615461E46DA
:107F1C00FFF76DFF48B9B86803689F692A46334676
:107F2C002146BC46BDE8F0416047BDE8F081704792
:107F3C0000207047814208B50ED0406803782A2B88
:107F4C000CD049680B782A2B08BF013100F078F867
:107F5C00B0FA80F0400908BD0120FCE70020FAE7E8
:107F6C0010B5054C13462CB10A4601460220AFF35E
:107F7C00008010BD2046FCE70000000030B5013940
:107F8C000024A24201D1002005E0035D01340D5D07
:107F9C00AB42F6D0581B30BD0A44914200F1FF337E
:107FAC0000D1704710B511F8014B03F8014F914205
:107FBC00F9D110BD884210B501EB020402D98442FC
:107FCC00234607D8431EA14208D011F8012B03F811
:107FDC00012FF8E7024401468A4200D110BD13F884
:107FEC00014D02F8014DF7E702440346934200D1DC
:107FFC00704703F8011BF9E738B50D4B1D68AB6BE7
:10800C0004467BB91820FDF767FE0A4A0A4BA863A1
:10801C00C0E90023094B83600B23838101220023D9
:10802C00C0E90423AB6B00221C615A6138BD00BF50
:10803C0008E503200E33CDAB34126DE6ECDE050003
:10804C0010F8012B11F8013B012A28BF9A42F7D0F6
:10805C00D01A7047034613F8012B002AFBD1181ACB
:10806C000138704710B50139034632B111F8014F90
:10807C0003F8014B013A002CF7D11A44002193422A
:10808C0000D110BD03F8011BF9E710B502460144FD
:10809C008A42134601D1181A10BD1C780132002CEB
:1080AC00F6D1F8E71D400D0059400D0081400D0040
:1080BC0085400D000000000031206861732062656E
:1080CC00656E2074797065640048656C6C6F210A6C
:1080DC000048656C6C6F21003645343030303031DF
:1080EC002D423541332D463339332D453041392D11
:1080FC0045353045323444434341394500364534E7
:10810C0030303030322D423541332D463339332D1A
:10811C00453041392D45353045323444434341399E
:10812C00450036453430303030332D423541332D17
:10813C00463339332D453041392D453530453234B0
:10814C004443434139450074780072780064656695
:10815C0061756C7420004D5342004C5342003C53EB
:10816C00504953657474696E6773206465666175F4
:10817C006C743E003C53504953657474696E67735C
:10818C002025732575202573204D4F444525753EBC
:10819C000000000000003E5B4F5B3E3E6B4F6B3EB1
:1081AC001C3E7C3E1C183C7E3C181C577D571C1CEE
:1081BC005E7F5E1C00183C1800FFE7C3E7FF001849
:1081CC00241800FFE7DBE7FF30483A060E26297932
:1081DC002926407F050507407F05253F5A3CE73C93
:1081EC005A7F3E1C1C08081C1C3E7F14227F221444
:1081FC005F5F005F5F06097F017F006689956A609B
:10820C006060606094A2FFA29408047E04081020B1
:10821C007E201008082A1C08081C2A08081E1010AA
:10822C0010100C1E0C1E0C30383E3830060E3E0E54
:10823C0006000000000000005F00000007000700BF
:10824C00147F147F14242A7F2A12231308646236A5
:10825C00495620500008070300001C224100004131
:10826C00221C002A1C7F1C2A08083E08080080706B
:10827C00300008080808080000606000201008049E
:10828C00023E5149453E00427F40007249494946F1
:10829C002141494D331814127F1027454545393C6F
:1082AC004A4949314121110907364949493646495C
:1082BC0049291E000014000000403400000008147E
:1082CC0022411414141414004122140802015909F7
:1082DC00063E415D594E7C1211127C7F494949364C
:1082EC003E414141227F4141413E7F494949417FC5
:1082FC00090909013E414151737F0808087F00417B
:10830C007F41002040413F017F081422417F4040C3
:10831C0040407F021C027F7F0408107F3E41414198
:10832C003E7F090909063E4151215E7F0919294604
:10833C00264949493203017F01033F4040403F1F1A
:10834C002040201F3F4038403F631408146303044F
:10835C007804036159494D43007F414141020408AF
:10836C001020004141417F04020102044040404082
:10837C0040000307080020545478407F28444438B8
:10838C003844444428384444287F38545454180002
:10839C00087E090218A4A49C787F08040478004481
:1083AC007D40002040403D007F1028440000417F6C
:1083BC0040007C047804787C0804047838444444F5
:1083CC0038FC1824241818242418FC7C08040408ED
:1083DC00485454542404043F44243C4040207C1C06
:1083EC002040201C3C4030403C44281028444C90F9
:1083FC0090907C4464544C44000836410000007753
:10840C000000004136080002010204023C2623262B
:10841C003C1EA1A161123A4040207A38545455595F
:10842C002155557941225454784221555478402095
:10843C00545579400C1E52721239555555593954B0
:10844C0054545939555454580000457C4100024548
:10845C007D420001457C407D1211127DF0282528BB
:10846C00F07C545545002054547C547C0A097F49B7
:10847C0032494949323A4444443A324A4848303AFB
:10848C004141217A3A42402078009DA0A07D3D4296
:10849C0042423D3D4040403D3C24FF2424487E491F
:1084AC0043662B2FFC2F2BFF0929F620C0887E0951
:1084BC000320545479410000447D413048484A32ED
:1084CC00384040227A007A0A0A727D0D19317D26D5
:1084DC0029292F28262929292630484D40203808BB
:1084EC0008080808080808382F10C8ACBA2F10283C
:1084FC0034FA00007B000008142A142222142A14D7
:10850C00085500550055AA55AA55AAFF55FF55FF09
:10851C00000000FF00101010FF00141414FF0010D6
:10852C0010FF00FF1010F010F0141414FC001414C1
:10853C00F700FF0000FF00FF1414F404FC141417E0
:10854C00101F10101F101F1414141F00101010F007
:10855C00000000001F101010101F10101010F01051
:10856C00000000FF101010101010101010FF100061
:10857C000000FF140000FF00FF00001F1017000098
:10858C00FC04F414141710171414F404F40000FF72
:10859C0000F714141414141414F700F7141414170B
:1085AC001410101F101F141414F4141010F010F0E9
:1085BC0000001F101F0000001F14000000FC14001E
:1085CC0000F010F01010FF10FF141414FF14101012
:1085DC00101F00000000F010FFFFFFFFFFF0F0F095
:1085EC00F0F0FFFFFF0000000000FFFF0F0F0F0F68
:1085FC000F3844443844FC4A4A4A347E0202060688
:10860C00027E027E0263554941633844443C044077
:10861C007E201E2006027E020299A5E7A5991C2A3F
:10862C00492A1C4C7201724C304A4D4D30304878FE
:10863C004830BC625A463D3E494949007E01010121
:10864C007E2A2A2A2A2A44445F444440514A444000
:10865C0040444A51400000FF0103E080FF00000845
:10866C00086B6B083612362436060F090F0600000D
:10867C0018180000001010003040FF0101001F010D
:10868C00011E00191D1712003C3C3C3C0000000070
:10869C0000000000000000000000000000000000CE
:1086AC0000000000614B0D005D730D00A1400D003A
:1086BC0069450D006B450D009D450D0079450D007C
:1086CC008B450D00AD440D0069450D0095470D001F
:1086DC000F470D00B5450D00F3450D002D460D005F
:1086EC0073460D0011470D008F460D000000000071
:1086FC0000000000714C0D00914C0D00614B0D0001
:10870C005D730D00554E0D0069450D006B450D0058
:10871C009D450D0079450D008B450D00AD440D00B8
:10872C0069450D0095470D000F500D00A3550D0028
:10873C0055550D002D460D0073460D0011470D00CB
:10874C008F460D00000000000000000059440D0091
:10875C002D440D002F440D0000000000000180008E
:10876C00000000000000000003800000000000007A
:10877C0000000007C000000000000000000007C05F
:10878C000000000000000000000FC000000000000E
:10879C00000000001FE00000000000000000001FAF
:1087AC00E00000000000000000003FE000000000BE
:1087BC0000000000003FF00000000000000000007E
:1087CC007FF0000000000000001FF87FF0000000A8
:1087DC00000000003FFE7FF0000000000000003FA2
:1087EC00FF7FF0000000000000001FFFFBE0000016
:1087FC0000000000000FFFF9FFC0000000000000A7
:10880C000FFFF9FFF800000000000007FFF1FFFF69
:10881C0000000000000003FC73FFFF80000000005C
:10882C000001FE3FFFFF80000000000000FF1E0F54
:10883C00FF000000000000007FFE1FFC0000000095
:10884C000000003FFFFFF8000000000000000FDFF9
:10885C00FFE0000000000000001F19FFC000000036
:10886C00000000003F3CFF00000000000000007E04
:10887C007CF800000000000000007FFE7C0000007F
:10888C000000000000FFFFFC0000000000000000E2
:10889C00FFFFFE0000000000000000FFFFFE0000D4
:1088AC00000000000001FFEFFE00000000000000CF
:1088BC0001FFCFFE0000000000000003FF07FE00D8
:1088CC0000000000000003FC07FE00000000000098
:1088DC000003F003FE00000000000000018000FE19
:1088EC00000000000000000000007E0000000000FE
:1088FC0000000000003E000000000000000000002E
:10890C000C000000000000078000FC000003C00009
:10891C000000078001FC000003C00000000780017C
:10892C00FC000003C0000000078001E00000001EF6
:10893C00000000078001E00000001E007FE3F79FAD
:10894C00F9FDE7787BDFC0FFF7FFBFFDFDFF787B0C
:10895C00DFC0FFF7FFBFFDFDFF787BDFC0F0F787BF
:10896C00BC3DE1FF787BDE00F0F787BC3DE1F078A1
:10897C007BDE0000F787803DE1E0787BDE007FF74F
:10898C00879FFDE1E0787BDE00FFF787BFFDE1E02C
:10899C00787BDE00F0F787BC3DE1E0787BDE00F011
:1089AC00F787BC3DE1E0787BDE00F0F787BC3DE16A
:1089BC00E0787BDE00FFF7FFBFFDE1E07FFBDFC06F
:1089CC00FFF7FFBFFDE1E07FFBDFC07CF3F39F3DD2
:1089DC00E1E03E7BCFC00000000000000000000082
:1089EC0000FFFFFFFFFFFFFFFFFFFFC0FFFFFFFFC9
:1089FC00FD68DB111A31C0FFFFFFFFFD2B5AFB6A2C
:108A0C00EFC0FFFFFFFFFD4B5B3B1A33C0FFFFFFC7
:108A1C00FFFD6B5BDB6AFDC0000060000000000026
:108A2C00000000000000000000E00000000000005A
:108A3C000000000000000001E00000000000000049
:108A4C0000000000000001F0000000000000000029
:108A5C00000000000003F000000000000000000017
:108A6C000000000007F00000000000000000000003
:108A7C0000000007F80000000000000000000000EB
:108A8C0000000FF800000003C0007E000001E000B1
:108A9C007F0FF800000003C000FE000001E000FFA3
:108AAC00EFF800000003C000FE000001E000FFFF33
:108ABC00F800000003C000F00000000F007FFE7FF4
:108ACC00C0000003C000F00000000F003FFE7FF864
:108ADC003FF1FBCFFCFEF3BC3DEFE01FFE7FFF7FC1
:108AEC00FBFFDFFEFEFFBC3DEFE01FC6FFFF7FFB81
:108AFC00FFDFFEFEFFBC3DEFE00FE3C7FE787BC35C
:108B0C00DE1EF0FFBC3DEF0007FF87FC787BC3DE69
:108B1C001EF0F83C3DEF0001FFFFF0007BC3C01ED0
:108B2C00F0F03C3DEF0001F37FE03FFBC3CFFEF0E4
:108B3C00F03C3DEF0003E33F807FFBC3DFFEF0F032
:108B4C003C3DEF0007E73C00787BC3DE1EF0F03CB9
:108B5C003DEF0007FFBE00787BC3DE1EF0F03C3D0E
:108B6C00EF0007FFFE00787BC3DE1EF0F03C3DEF0C
:108B7C00000FFFFE007FFBFFDFFEF0F03FFDEFE09C
:108B8C000FFFFF007FFBFFDFFEF0F03FFDEFE00F7C
:108B9C00F9FF003E79F9CF9EF0F01F3DE7E01FF1A1
:108BAC00FF0000000000000000000000001F80FF1C
:108BBC00007FFFFFFFFFFFFFFFFFFFE01C007F00B8
:108BCC007FFFFFFFFEB46D888D18E000001F007F53
:108BDC00FFFFFFFE95AD7DB577E000000F007FFF36
:108BEC00FFFFFEA5AD9D8D19E0000006007FFFFF85
:108BFC00FFFEB5ADEDB57EE000000000000000000A
:108C0C00294E0D00414E0D00614B0D005D730D00A2
:108C1C00554E0D0069450D006B450D009D450D0031
:108C2C0079450D008B450D00AD440D0069450D00D7
:108C3C0095470D000F500D00A3550D0055550D0017
:108C4C002D460D0073460D0011470D008F460D008B
:108C5C000080C0E0F0F8FCFE000103070F1F3F7F0F
:108C6C00AED580A8D300408D2000A1C8DB40A4A6BF
:108C7C002EAFDA02818FDA1281DA02812200FF2113
:108C8C00000000000000000000000000A35D0D00CB
:108C9C00995D0D008F5D0D00855D0D00795D0D00FA
:108CAC006D5D0D008D7A0D00957A0D00615D0D00E6
:108CBC00595D0D004F5D0D00455D0D00C57A0D0031
:108CCC000008101820283038776972696E672E6298
:108CDC006C6500537461727420646973636F76659C
:108CEC0072696E672073657276696365732E0050C6
:108CFC0065657220646576696365206973206D69AA
:108D0C007373696E6721004661696C656420746FCA
:108D1C0020617070656E6420706565722043656EAD
:108D2C007472616C206465766963652E00436F6EA6
:108D3C006E65637465642062792043656E7472613C
:108D4C006C206465766963652E00446973636F6E8D
:108D5C006E65637465642062792072656D6F7465ED
:108D6C00206465766963652E004475706C69636177
:108D7C00746564206368617261637465726973748D
:108D8C0069632063616E6E6F742062652061646438
:108D9C0065642E004661696C656420746F20617097
:108DAC0070656E64206C6F63616C206368617261C6
:108DBC006374657269737469632E000000000000AF
:108DCC000000000071600D00D5600D009D620D006B
:108DDC00FF600D0075600D00000000000000000039
:108DEC006D600D00E3600D006F600D0003610D0000
:108DFC0095600D0000000000000000006B600D008D
:108E0C00F1600D00516A0D0007610D00B5600D0099
:108E1C000000000000000000FB349B5F800000801D
:108E2C0000100000000000007BE327747BF815ACF9
:108E3C00DD49A913000072F5FB349B5F80000080B4
:108E4C0000100000000000006170700025592D25F5
:108E5C006D2D25645425483A254D3A2553257A0025
:108E6C0061736374696D6500000000000000000010
:108E7C0049760D0039760D003B760D0000000000A0
:108E8C000000000029770D0091770D0067770D0029
:108E9C005D730D0059770D002B770D003B770D009E
:108EAC008B770D004B770D0025770D00000000002F
:108EBC000000000035780D00A1780D0079780D00C8
:108ECC005D730D0049780D0065780D0057780D0025
:108EDC0073780D0037780D003B780D000000000012
:108EEC000000000031790D007B790D0053790D00E5
:108EFC0033790D005B790D0063790D006B790D00F2
:108F0C0073790D0000000000000000002F7A0D00A6
:108F1C00257A0D001B7A0D00DD790D0071740D00A2
:108F2C000F7A0D008D7A0D00957A0D00037A0D00E5
:108F3C00FB790D00F1790D00E7790D00C57A0D0074
:108F4C0000000000000000004D7A0D00577A0D0063
:108F5C00617A0D006B7A0D00757A0D00817A0D0027
:108F6C008D7A0D00957A0D009D7A0D00A97A0D0071
:108F7C00B17A0D00BB7A0D00C57A0D000053743127
:108F8C00395F53705F6D616B655F736861726564A7
:108F9C005F74616700000000E48F0D00898F0D0085
:108FAC0044900D00B88F0D0068900D004E31305F6D
:108FBC005F637878616269763131375F5F636C61CA
:108FCC0073735F747970655F696E666F450000003E
:108FDC0000000000AC8F0D00957D0D00A97D0D00EB
:108FEC003D7F0D003D7F0D00137E0D00557D0D0066
:108FFC00FB7D0D00BD7D0D00897D0D0044900D00A5
:10900C0014900D00AC8F0D004E31305F5F6378789B
:10901C00616269763132305F5F73695F636C617373
:10902C00735F747970655F696E666F450000000050
:10903C000000000008900D003D7E0D00517E0D00DB
:10904C003D7F0D003D7F0D00137E0D00557D0D0005
:10905C00117F0D009D7E0D00657E0D00E48F0D00CF
:10906C0070900D00537439747970655F696E666F1A
:10907C000000000009430D00AD5D0D001D5F0D00EB
:10908C0035730D007D740D008D740D00F9740D0099
:10909C00397A0D00A57B0D000000000000000000D7
:0490AC0000000000C0
:0490B00000000000BC
:1090B4006C8E0D000CE50320000000000000000091
:1090C400000000000000000000000000000000009C
:1090D400000000000000000000000000000000008C
:1090E400000000000000000000000000000000007C
:1090F400000000000000000000000000000000006C
:10910400000000000000000000000000000000005B
:08911400000000000000000053
:10911C00FFFFFFFF00000102030405060708090A10
:10912C000B0C0D0E0F101112131415161718191A0B
:08913C001B1C1D1E1F20280052
:049144007856341213
:04000003D000401CCD
:00000001FF
